:020000040000fa
:080000000001040000000000f3
:020000040000fa
:040008001a030000d7
:020000040000fa
:04000c001a030000d3
:020000040000fa
:040010001a030000cf
:020000040000fa
:040014001a030000cb
:020000040000fa
:040018001a030000c7
:020000040000fa
:04001c001a030000c3
:020000040000fa
:040020001a030000bf
:020000040000fa
:040024001a030000bb
:020000040000fa
:040028001a030000b7
:020000040000fa
:04002c001a030000b3
:020000040000fa
:040030001a030000af
:020000040000fa
:0400340004020000c2
:020000040000fa
:040038001a030000a7
:020000040000fa
:04003c001a030000a3
:020000040000fa
:040040001a0300009f
:020000040000fa
:040044001a0300009b
:020000040000fa
:040048001a03000097
:020000040000fa
:04004c001a03000093
:020000040000fa
:040050001a0300008f
:020000040000fa
:040054001a0300008b
:020000040000fa
:040058001a03000087
:020000040000fa
:04005c001a03000083
:020000040000fa
:040060001a0300007f
:020000040000fa
:040064001a0300007b
:020000040000fa
:040068001a03000077
:020000040000fa
:04006c001a03000073
:020000040000fa
:040070001a0300006f
:020000040000fa
:040074001a0300006b
:020000040000fa
:040078001a03000067
:020000040000fa
:04007c001a03000063
:020000040000fa
:040080001a0300005f
:020000040000fa
:040084001a0300005b
:020000040000fa
:040088001a03000057
:020000040000fa
:04008c001a03000053
:020000040000fa
:040090001a0300004f
:020000040000fa
:040094001a0300004b
:020000040000fa
:040098001a03000047
:020000040000fa
:04009c001a03000043
:020000040000fa
:0400a0001a0300003f
:020000040000fa
:0400a4001a0300003b
:020000040000fa
:0400a8001a03000037
:020000040000fa
:0400ac001a03000033
:020000040000fa
:0400b0001a0300002f
:020000040000fa
:0400b4001a0300002b
:020000040000fa
:0400b8001a03000027
:020000040000fa
:0400bc001a03000023
:020000040000fa
:0400c0001a0300001f
:020000040000fa
:0400c4001a0300001b
:020000040000fa
:0400c8001a03000017
:020000040000fa
:0400cc001a03000013
:020000040000fa
:0400d0001a0300000f
:020000040000fa
:0400d4001a0300000b
:020000040000fa
:0400d8001a03000007
:020000040000fa
:0400dc001a03000003
:020000040000fa
:0400e0001a030000ff
:020000040000fa
:0400e4001a030000fb
:020000040000fa
:0400e8001a030000f7
:020000040000fa
:0400ec001a030000f3
:020000040000fa
:0400f0001a030000ef
:020000040000fa
:0400f4001a030000eb
:020000040000fa
:0400f8001a030000e7
:020000040000fa
:0400fc001a030000e3
:020000040000fa
:040100001a030000de
:020000040000fa
:040104001a030000da
:020000040000fa
:040108001a030000d6
:020000040000fa
:04010c001a030000d2
:020000040000fa
:040110001a030000ce
:020000040000fa
:040114001a030000ca
:020000040000fa
:040118001a030000c6
:020000040000fa
:04011c001a030000c2
:020000040000fa
:040120001a030000be
:020000040000fa
:040124001a030000ba
:020000040000fa
:040128001a030000b6
:020000040000fa
:04012c001a030000b2
:020000040000fa
:040130001a030000ae
:020000040000fa
:040134001a030000aa
:020000040000fa
:040138001a030000a6
:020000040000fa
:04013c001a030000a2
:020000040000fa
:040140001a0300009e
:020000040000fa
:040144001a0300009a
:020000040000fa
:040148001a03000096
:020000040000fa
:04014c001a03000092
:020000040000fa
:040150001a0300008e
:020000040000fa
:040154001a0300008a
:020000040000fa
:040158001a03000086
:020000040000fa
:04015c001a03000082
:020000040000fa
:040160001a0300007e
:020000040000fa
:040164001a0300007a
:020000040000fa
:040168001a03000076
:020000040000fa
:04016c001a03000072
:020000040000fa
:040170001a0300006e
:020000040000fa
:040174001a0300006a
:020000040000fa
:040178001a03000066
:020000040000fa
:04017c001a03000062
:020000040000fa
:040180001a0300005e
:020000040000fa
:040184001a0300005a
:020000040000fa
:040188001a03000056
:020000040000fa
:04018c001a03000052
:020000040000fa
:040190001a0300004e
:020000040000fa
:040194001a0300004a
:020000040000fa
:040198001a03000046
:020000040000fa
:04019c001a03000042
:020000040000fa
:0401a0001a0300003e
:020000040000fa
:0401a4001a0300003a
:020000040000fa
:0401a8001a03000036
:020000040000fa
:0401ac001a03000032
:020000040000fa
:0401b0001a0300002e
:020000040000fa
:0401b4001a0300002a
:020000040000fa
:0401b8001a03000026
:020000040000fa
:0401bc001a03000022
:020000040000fa
:0401c0001a0300001e
:020000040000fa
:0401c4001a0300001a
:020000040000fa
:0401c8001a03000016
:020000040000fa
:0401cc001a03000012
:020000040000fa
:0401d0001a0300000e
:020000040000fa
:0401d4001a0300000a
:020000040000fa
:0401d8001a03000006
:020000040000fa
:0401dc001a03000002
:020000040000fa
:0401e0001a030000fe
:020000040000fa
:0401e4001a030000fa
:020000040000fa
:0401e8001a030000f6
:020000040000fa
:0401ec001a030000f2
:020000040000fa
:0401f0001a030000ee
:020000040000fa
:0401f4001a030000ea
:020000040000fa
:0401f8001a030000e6
:020000040000fa
:0401fc001a030000e2
:020000040000fa
:100200002f8c20000e7f24000e01880000000000cb
:10021000000020000000e000020032000001200089
:100220002002880014000700040107000000e0001d
:1002300003003a00809122000100200002003700f4
:100240000000200001002000810f7000010032003a
:1002500014000700000020000000e000020032004f
:100260000000020000000000c81c020000000000a6
:100270000040da000000fe004440a900c03a20001f
:100280000000e00003003200002020009001880000
:100290004440a800000006008a1f78008b1f7800e9
:1002a00000000600a1028800800478000000eb0036
:1002b0001f003700e284440054a0b4009905ba003e
:1002c000e284440054a0b4009906ba00e2844400d9
:1002d00054a0b4000006eb00476fde00fd07b2003b
:1002e000ae018800636ce10003003a00eaff0700fa
:1002f0000000eb000e003700606ce10008003a00df
:10030000004deb000a05e800020039003420ec0043
:100310000af0a0008b05e900f9ff3e000400370059
:100320006168e100010032000086eb000b0007006d
:1003300019c7ba001905ba000e04e00003003a001c
:100340000a00e000dbff3a0000000600fe07b200f2
:10035000ae0288008a047800f5ff37000cd0a300b5
:10036000e20f4d001c00390089027800354dba00bb
:100370000a05e800020039003420ec000af0a00071
:100380008b05e9000f003200254dba000a05e80090
:10039000020039003420ec000af0a0008b05e900cf
:1003a000080032000c00e0000600320015cdba0053
:1003b0000a05e800020039003420ec000af0a00031
:1003c0008b05e9008984e80054a0b4000b00e0002c
:1003d000e2ff3a00000006009902ba00055d7800cd
:1003e0008b05e900f7ff3200c82ade00055d7800c2
:1003f0008b05e900f3ff32000c00e000f1ff320052
:1004000019ddba00eeff37003600f800809fbe000d
:10041000829fbe00849fbe00869fbe003200f8000f
:100420003400f80010002000a00188000020200007
:10043000900188000000fa00213380000080200035
:10044000008060000000e00006003a00b08b200051
:10045000104078008040e800b08b20000148780010
:1004600003003700b08b20008040eb00014878008b
:10047000b08b200010407800e14f50001b00360088
:10048000b08b20008040eb00014878009045800050
:10049000e20f500004003200200020009045880048
:1004a0001b09070011003700a04580009045880017
:1004b000008c20008040eb0001487800d08b2000a9
:1004c0008040eb0001487800f08b200051c0b30061
:1004d00001487800a04580000000e00002003a00da
:1004e000d90607000100370002080700a08b200092
:1004f000104078000004e00008003200a1892000cc
:10050000c08a2000da0307000004e0000300320084
:1005100030002000904588001108070090458000b9
:10052000e10f500018003200e10f500013003900b5
:10053000e20f500003003200e30f500015003200bc
:1005400030003700108c2000104078000004e000dc
:1005500004003200730c0700108c20008040eb0078
:100560000148780090458000e20f500024003a00d6
:100570000d080700bd08070022003700e20507004c
:100580000b0507001f003700460707002307070079
:100590001c003700108c2000104078000004e000a0
:1005a00015003200108c20008040eb0001487800dc
:1005b000a045800090458800008c20008040eb0022
:1005c00001487800d08b20008040eb000148780083
:1005d000f08b200051c0b30001487800a045800096
:1005e0000000e00002003a0097060700050037000f
:1005f000c007070003003700df07070001003700ce
:1006000000000000a0892000d50307008860a90031
:100610000080fa003400f9003200f9004f03be00f8
:100620004f02be004f01be004f00be003600f90071
:10063000004006000040da000000fe000000050057
:10064000889fbe008a9fbe008c1f78009d00070017
:10065000a400330003866c006450e1002e003200d9
:100660006420e100330032006150e1002f003200cd
:100670006120e1003100320085855500eb07b000b4
:100680000900200008042000050037000804440089
:1006900089844c000a0031000603430087834b0025
:1006a0000001530081815b00f8ff33000203be00ac
:1006b0000800a0000804440089844c00f6ff3900bb
:1006c000c639dd00830173000100320013002000f1
:1006d0008904d1000884d3000998a30005003200e2
:1006e0000800a7000300a0008904d1000884d300fb
:1006f0008b05e8008904d1000884d3000001eb00d9
:100700000281d2003400070001f0a1000cf0a70024
:1007100001f0a0007c0037006420e1007e00320080
:100720000801be000200be00f7ff37006120e100b3
:10073000790032006000b800f3ff370000002000ad
:1007400001f82700f0ff37000001be004800070055
:100750000470a70003f0a1006509b1001600320083
:100760000d0035006828e10006003500f0ff2f007d
:10077000f1ff27000300e00013003b000100280008
:100780000000050000004000818048008502e9006b
:10079000fcff3a0008003700f88f420002003c00de
:1007a0008000eb00000005008100d1000080d30034
:1007b0008502e800fcff3a000300e00002003b0075
:1007c00060001000e0801800000006004f89de0085
:1007d0008201780087003700810020006180550089
:1007e0000b003d000b00200061fe2f000100e10026
:1007f0001d00340082817100610164008904d10010
:100800000884d3000000e800faff3a0071002000dd
:100810006100640003007000020060000900320003
:1008200061044400e0844c000988a5000500320002
:100830008b05e8006808e10002003a008904d10055
:100840000884d300f20f20000258e10005003d00ab
:10085000c75ddd00f907b2008980750008007800e7
:10086000000006000bf827008b0078000000050050
:10087000c70ade00f107b200f50fb200080032002f
:10088000e1cf4200020032000170a0002400050008
:10089000810f7000010032000408050044000500cb
:1008a000810f700002003a00140005008502e90083
:1008b0000000400081c04800fcff3b000170a00028
:1008c000240005000004be00e9ff07000003be008d
:1008d0000405be000200be00e5ff0700844f75005e
:1008e000000006000200be006450e1000500360072
:1008f0006420e100020036000968a30001003a000c
:100900000800be000160a0004f0678004f05be0041
:100910004f04be0000000600f0ff2f00f1ff27008b
:10092000f9ff3700889fbe008a9fbe008c1f7800a9
:10093000e4ff0700ebff330003866c006450e10026
:10094000240032006420e100270032006150e10001
:10095000220032006120e100210032008b8542003c
:10096000eb07b1000134b800003ab80008044200b7
:1009700089844a00013ab8000030b80088804000fd
:1009800009014a0004003300000040008180480053
:10099000020149008b05e900c909dd0083017000ef
:1009a0000100320013002000c814de004814dd00ee
:1009b0004709de001200b200c808de00088470009b
:1009c00085ff070001f0a1000cf0a70001f0a000d6
:1009d000cdff37006120e100cfff32000801be00eb
:1009e0000200be00f7ff37006150e100fcff3a0053
:1009f000c9ff3700881f7800030478000300e00077
:100a000007003d0060001000e08018006001190040
:100a1000e081190002003b0001f02d0003003700c7
:100a20000400070008f0a70001f0a0004f047800c0
:100a300000000600889fbe008a9fbe0000827000f2
:100a40000402710004827100260032000004be001e
:100a50000200be006011b8006b0920009502200062
:100a60000182cf000a0039000541b1000082cf00a9
:100a7000070039000541b1000982cf0004003900a8
:100a80000541b1000882cf00010039000541b100e5
:100a900005425200120032000a003b0082817100c0
:100aa000610164008100d1000080d3008984d300fb
:100ab0000884d3008b05e8000442e800f7ff3a0001
:100ac000070037000804440089844c0000004800f7
:100ad000818048008b05e9000442e900f9ff3a00f3
:100ae0003dff07004f05be004f04be00000006009a
:100af0008001780002003700b15978000201e90056
:100b00000200e000fcff3a0000000600000178004f
:100b1000820178003204e000fdff3a000301780012
:100b2000b1417800035978000304e000fcff3a006b
:100b30000000060000017800b141780003597800f8
:100b40000304e000fcff3a0000000600800078008b
:100b5000010178003104e000fdff3a00000051007f
:040b6000000006008b
:020000040000fa
:100b64005f5f0000050800000000000000000000b6
:100b74000000000000fa00000000000000e0000097
:100b840000e0000000280000fe280000fe2800000d
:100b940024540000fe54000048c40000c8100000a3
:100ba400264600006c9200006a0400000a0000005f
:100bb40010e00000c0000000003800004482000083
:100bc4000000000082440000380000005438000097
:100bd400fe38000054100000107c000010100000cb
:100be400000000000e0c00000010000010100000b7
:100bf40010100000000000000606000000040000c1
:100c040008100000204000007c8a000092a200002e
:100c14007c00000042fe0000020000004e92000032
:100c2400929200006284000082920000b2cc000024
:100c34001828000048fe000008e40000a2a20000fa
:100c4400a29c00003c520000929200008c820000a2
:100c54008488000090e000006c92000092920000f2
:100c64006c62000092920000947800000000000082
:100c74002800000000000000022c0000000000001a
:100c840000100000284400008228000028280000ea
:100c940028280000008200004428000010400000c2
:100ca400809a0000906000007c820000ba9a0000e4
:100cb400723e000048880000483e0000fe9200009a
:100cc400929200006c7c000082820000824400004a
:100cd400fe820000828200007cfe000092920000ee
:100ce40092820000fe90000090900000807c000042
:100cf400828200008ace0000fe1000001010000066
:100d0400fe00000082fe00008200000004020000d9
:100d140082fc000080fe00001028000044820000d5
:100d2400fe0200000202000002fe00004038000043
:100d340040fe0000fe20000010080000fe7c0000c1
:100d440082820000827c0000fe90000090900000ef
:100d5400607c0000828a0000847a0000fe9000001b
:100d6400989400006264000092920000924c00008b
:100d7400c0800000fe800000c0fc000002020000f1
:100d840002fc0000f804000002040000f8fc00006b
:100d9400021c000002fc0000c6280000102800000d
:100da400c6c00000201e000020c00000869a00007b
:100db40092b20000c2000000fe82000082820000a5
:100dc400402000001008000004000000828200009f
:100dd40082fe00002040000080400000200200004d
:100de400020200000202000000c00000e010000047
:100df400000400002a2a00001c020000fe14000067
:100e0400222200001c1c00002222000022140000e8
:100e14001c22000022140000fe1c00002a2a0000ec
:100e24002a180000001000007e90000040300000ee
:100e34004a4a0000523c0000fe100000202000003e
:100e44001e00000022be0000020000000402000098
:100e540002bc000000fe0000081400002200000094
:100e640000820000fe020000003e0000201e000080
:100e7400201e00003e100000202000001e1c000068
:100e840022220000221c00003e180000242400003e
:100e94001818000024240000183e00003e10000032
:100ea40020200000101200002a2a00002a2400003a
:100eb40020200000fc220000243c0000020200006c
:100ec400043e00003804000002040000383c000026
:100ed400020c0000023c0000221400000814000070
:100ee400223200000a0a00000a3c00002226000008
:100ef4002a32000022000000106c00008200000072
:100f040000000000fe00000000000000826c0000f1
:100f1400100000004080000040200000400000005d
:100f2400dff700005aff0000ff070000fa7f00000f
:100f3400fff70000bbf7000038ff000000000000ce
:100f440059ff00001f0000005c89000045a100005b
:100f5400d0dd0000f45c0000e07f000043d300001b
:100f6400eafb0000bd640000dbff0000a7d800001e
:100f7400ff070000110000005104000021bc000024
:100f840055ad00002003000055ad0000adbd0000cc
:100f9400118800004553000060fc0000999900008e
:100fa40000880000afec0000f18d0000f149000062
:100fb400692a0000692a00007a0600001a900000dd
:100fc400b2f80000ff0500004d6b00004d6b0000ff
:100fd4009f1c000004b10000deff00004424000058
:100fe4001ff80000fbde0000dfff0000a0fe000091
:100ff40024dd00001084000000040000e5af0000c0
:1010040010840000fef7000056fb0000ebca00004d
:1010140010480000feff000031f700003fe7000029
:101024009eff0000e07f0000d9ff0000dcae00005e
:1010340010f40000ffe70000daff00009ad6000079
:10104400729700009ad60000b8fd00000ffd000062
:10105400952500007f86000053740000537400003f
:101064003bb60000fcff0000e0070000663600000d
:101074009cff00001ff8000000800000756600005f
:1010840019000000baba00009b9300008e3d0000d6
:101094005d7b0000d3070000994e0000b0c0000043
:1010a400ce180000fff700003cff000036ff0000f0
:1010b400f5fe000010000000bcff000000840000ea
:1010c400646c000020fd000020fa00009adb0000a0
:1010d40055ef0000d39f00007daf000092db0000bd
:1010e4007aff0000d7fe000027cc000019fe0000a4
:1010f4001bdd00001cb700001080000000f8000099
:1011040071bc00005c430000228a00000efc000059
:101114002cf500004a2c0000bdff000085a2000051
:1011240018c600007d860000d96a00001274000011
:1011340012740000dfff0000ef07000016440000f7
:10114400b1d5000010040000fbdd000008fb000026
:101154001a4700001dec0000f6f60000ffff000037
:10116400bef70000e0ff0000669e00002f000000b4
:101174003a0000003e000000446900007370000063
:101184006c610000792000004d6f00006465000070
:10119400005300006574000020540000696d0000d5
:1011a40065000000536500007420000044610000e5
:1011b4007465000000310000324800002f32000046
:1011c40034480000004100006c610000726d0000b2
:1011d400004100006e6100006c6f000067000000b9
:1011e4004469000067690000746100006c0000003d
:1011f400486f000075720000733a00002000000080
:101204004d6900006e75000074650000733a0000bb
:101214002000000053650000636f00006e6400004e
:10122400733a000020000000436f00006e66000067
:10123400697200006d00000042610000636b0000f1
:1012440000440000617900003a200000004d0000d5
:101254006f6e0000746800003a2000000053000024
:1012640065740000206f00006e00000053650000ec
:10127400742000006f660000660000003132000038
:101284004820000042610000736500000032000045
:101294003448000020420000617300006500000033
:1012a40020010000000000000000000020010000f8
:0812b4000f0000000000000023
:020000040000fa
:1012bc000400fa00000f7800110798001e01780056
:1012cc00706626000090b900c288de004f90de00e8
:1012dc0000805000004078000043b000804078004f
:1012ec001e009000014878001e0090000002e800eb
:1012fc009e007800706626000089b9004299de00d5
:10130c004f88de00000051006a01b900020078002d
:10131c0000805000004078000043b000004a780084
:10132c001e0090000080e8008040eb00014878002f
:10133c000080fa00000006000200fa00000f78009e
:10134c001e0078008000eb00010878001e00780079
:10135c008000eb00110098001e0078008000eb006c
:10136c00210098001e0078008040eb000148980096
:10137c001e00780011c0b300614098001e00780078
:10138c0011c0b300714098001e0078008040eb0043
:10139c00314898001e0078008040eb0041489800ce
:1013ac001e00780051c0b300514898001e00780010
:1013bc008040eb00714898001e0078008040eb00e4
:1013cc00614898000080fa00000006000200fa0054
:1013dc00000f78001e007800c1c0b30001487800ef
:1013ec001e007800f1c1b300114098001e00780077
:1013fc0031c1b300214098001e00780091c0b300a9
:10140c00314098001e007800e1c1b30041409800c3
:10141c000080fa00000006000200fa00000f7800bd
:10142c001e007800c1c0b300014878001e0078008f
:10143c00f1c1b300114098001e00780081c0b300c8
:10144c00214098001e0078008040eb00314098004d
:10145c001e0078008040eb00414098000080fa00ac
:10146c00000006000400fa00000f78001107980035
:10147c001e007800a04090001e00900020409000bc
:10148c0080cf5000020032000040eb00110037000a
:10149c001e007800b04090001e009000304090007c
:1014ac0080cf5000020032000040eb0009003700f2
:1014bc001e007800c04090001e009000404090003c
:1014cc0080cf5000020032000040eb0001003700da
:1014dc0010c0b3000080fa00000006000400fa00ff
:1014ec00000f7800110798001e009000a04090009b
:1014fc001e007800214098001e009000b040900023
:10150c001e007800314098001e009000c0409000f2
:10151c001e007800414098000080fa000000060090
:10152c000400fa00000f7800110798001e009000cc
:10153c00904078001e007800014878001e00900052
:10154c00904090001e007800114098000080fa0036
:10155c00000006000200fa00000f78001e00780060
:10156c00404090008040e8001e0078004140980008
:10157c001e007800c0409000c0c3b30080cf500064
:10158c004b003a001e0078008040eb004140980070
:10159c001e007800304090008040e8001e0078006b
:1015ac00314098001e007800b0409000c0c3b300da
:1015bc0080cf50003e003a001e0078008040eb00c7
:1015cc00314098001e007800204090008040e800d8
:1015dc001e007800214098001e00780020409000ea
:1015ec00f84f50002b003a001e0078008040eb00b2
:1015fc00214098001e007800104090008040e800c8
:10160c001e00780011409800808b200011c0b300a0
:10161c0001487800908b200011c0b300014878007d
:10162c001e007800104090008080fb001e007800a7
:10163c00104078000080fb000000e9000001400031
:10164c00808020000000410010007800808f500046
:10165c00170036001e00780011c0b300114098002e
:10166c001e007800104078008040e8001e007800d2
:10167c00014878001e00780010407800ec4f5000b4
:10168c000b0036001e00780011c0b3000148780032
:10169c00070037001e00780020409000ec4f5000ef
:1016ac0003003a00808b200011c0b3000148780081
:1016bc000080fa00000006000e00fa0050079800a7
:1016cc00610798005e009000104090000080fb00c5
:1016dc00e6004700f6fe0700660047008000780031
:1016ec000e00780010fd07000e00780014fd0700b6
:1016fc000000470022002000818b2800f9fc070025
:10170c005e009000104078000080fb00e60047006f
:10171c00e7fe070066004700800078000e007800a6
:10172c00f7fc07008e0078006e009000fefc0700ae
:10173c000080fa00000006001200fa007007980002
:10174c00010f98007e009000204090000080fb006c
:10175c00000f7800b04580000000e00005003a0062
:10176c001e007800eb0f5000020034009e00780041
:10177c006c8f50006b004700800078001e007800d2
:10178c00cbfe0700eb0047000e80e800e6fc0700ec
:10179c000e80e800eafc07008e80e8000080400024
:1017ac0022002000a18b2800cefc07007e009000b8
:1017bc00304090000080fb00eb004700bcfe0700af
:1017cc00eb0047000e80e800cdfc07000e80e8001f
:1017dc00dbfc07008e80e800008040002200200027
:1017ec00a18b2800bffc07007e00900040409000b9
:1017fc000080fb00eb004700adfe0700eb0047004c
:10180c000e80e800befc07000e80e8008000780027
:10181c000e089000c4fc07000080fa0000000600cf
:10182c000000fa00004484000002780023c0b300da
:10183c0042c0b30061c0b30060c0b300f60907003a
:10184c000080fa00000006000000fa00003d840051
:10185c000002780023c0b30042c0b30061c0b300e3
:10186c0060c0b300ec0907000080fa00000006001d
:10187c000000fa00003d840000027800f3c5b300bc
:10188c00f2c0b30081c5b30010c0b300660b0700f3
:10189c000080fa00000006000600fa00f4ff0700c2
:1018ac00c089200010407800eb4f50000e003e0025
:1018bc0010d42400000f78000040eb002047980063
:1018cc00814584000e0078008102780000027800c7
:1018dc0013c0b30012c0b30081c5b30010c0b30075
:1018ec00d70b0700130037006300470001c5b30096
:1018fc00014878000000e800d1c4b300014878002a
:10190c000000e8008040eb00014878000000e8008f
:10191c008145840063004700810278000002780052
:10192c0013c0b30012c0b30081c5b30010c0b30024
:10193c00c30b07000080fa00000006000000fa004c
:10194c00003d840000027800f3c5b300f2c5b3007b
:10195c0081c5b30040c4b300330b07000080fa000c
:10196c00000006000600fa00f4ff07008e00780065
:10197c00a089200050ff0700814584000e007800ec
:10198c00810278000002780013c0b30012c0b300cb
:10199c0081c5b30010c4b300a90b07000080fa0086
:1019ac00000006000200fa0082458400108220002c
:1019bc00904078000082200010407800820178006e
:1019cc0032c0b3000b090700e089200010407800fa
:1019dc000080fb000000400021822000e1417800e3
:1019ec00e0892000104078000080fb0000004000df
:1019fc0021822000614078008080fb000082200062
:101a0c00104078000080fb000081500070662600ba
:101a1c000090b9008180d1004f90de000080500012
:101a2c000040780000c05100004f7800e089200091
:101a3c00104078000080fb00000040000000e8002f
:101a4c0021822000e1417800e089200010407800dc
:101a5c000080fb00000040000000e8002182200014
:101a6c00614078008080fb001082200010407800dc
:101a7c000080fb0000815000706626000090b900c9
:101a8c008180d1004f90de00008050000040780033
:101a9c0000c0510010479800844584009e4190007e
:101aac001e417800108220009040780000822000b7
:101abc00104078008402780014c0b3001f0a07009d
:101acc00d0892000104078000080fb00000040000e
:101adc0021822000e1417800d0892000104078005c
:101aec000080fb0000004000218220006140780053
:101afc008080fb0000822000104078000080fb00fa
:101b0c0000815000706626000090b9008180d100e1
:101b1c004f90de00008050000040780000c0510063
:101b2c00004f7800d0892000104078000080fb0026
:101b3c00000040000000e80021822000e141780014
:101b4c00d0892000104078000080fb00000040008d
:101b5c000000e80021822000614078008080fb00ba
:101b6c0010822000104078000080fb0000815000a3
:101b7c00706626000090b9008180d1004f90de0085
:101b8c00008050000040780000c0510010479800c1
:101b9c00844584009e4190001e41780010822000f4
:101bac009040780000822000104078008402780079
:101bbc0024c0b300e1090700008220001041780026
:101bcc00c0892000104078000080fb006500b9003f
:101bdc0080007800c003200080017800110009000b
:101bec008300d8008000fd0000004000218220000e
:101bfc00614078008080fb0000822000104078005b
:101c0c000080fb0000805000cf00de000080400010
:101c1c000080d1000040780000404100004f780067
:101c2c001082200010417800c089200010407800fc
:101c3c000080fb006500b90080007800c003200024
:101c4c0080017800110009008300d8008000fd009d
:101c5c00000040000000e800218220006140780074
:101c6c008080fb0010822000104078000080fb0078
:101c7c0000805000cf00de00008040000080d100ca
:101c8c0000407800004041001047980084458400d3
:101c9c009e4190001e4178001082200090407800f8
:101cac0000822000104078008402780044c0b30009
:101cbc00a2090700808b2000104078000004e0008f
:101ccc0004003200f4fe0700808b20008040eb0003
:101cdc0001487800908b2000104078000004e00050
:101cec00040032001fff0700908b20008040eb00a7
:101cfc00014878000080fa00000006000200fa009b
:101d0c00408a2000104078000080fb00000040005a
:101d1c0021822000e1417800408a200010407800a8
:101d2c000080fb0000004000218220006140780010
:101d3c008080fb0000822000104078000080fb00b7
:101d4c0000815000706626000090b9008180d1009f
:101d5c004f90de00008050000040780000c0510021
:101d6c00004f7800408a2000104078000080fb0073
:101d7c00000040000000e80021822000e1417800d2
:101d8c00408a2000104078000080fb0000004000da
:101d9c000000e80021822000614078008080fb0078
:101dac0010822000104078000080fb000081500061
:101dbc00706626000090b9008180d1004f90de0043
:101dcc00008050000040780000c05100104798007f
:101ddc00043d84009e4190001e417800108220003a
:101dec009040780000822000104078008402780037
:101dfc0014c0b30051090700308a200090407800cd
:101e0c00d08920001040780080cf50003e00320076
:101e1c00308a2000104078000080fb000000400059
:101e2c0021822000e1417800308a200010407800a7
:101e3c000080fb00000040002182200061407800ff
:101e4c008080fb0000822000104078000080fb00a6
:101e5c0000815000706626000090b9008180d1008e
:101e6c004f90de00008050000040780000c0510010
:101e7c00004f7800308a2000104078000080fb0072
:101e8c00000040000000e80021822000e1417800c1
:101e9c00308a2000104078000080fb0000004000d9
:101eac000000e80021822000614078008080fb0067
:101ebc0010822000104078000080fb000081500050
:101ecc00706626000090b9008180d1004f90de0032
:101edc00008050000040780000c05100104798006e
:101eec00043d84009e4190001e4178001082200029
:101efc009040780000822000104078008402780026
:101f0c0024c0b3000d090700208a200090407800ff
:101f1c00c08920001040780080cf50003f00320074
:101f2c000082200010417800208a200010407800a8
:101f3c000080fb006500b90080007800c003200021
:101f4c0080017800110009008300d8008000fd009a
:101f5c000000400021822000614078008080fb005e
:101f6c0000822000104078000080fb0000805000b0
:101f7c00cf00de00008040000080d10000407800df
:101f8c0000404100004f7800108220001041780082
:101f9c00208a2000104078000080fb006500b9000a
:101fac0080007800c0032000800178001100090037
:101fbc008300d8008000fd00000040000000e80015
:101fcc0021822000614078008080fb00108220007c
:101fdc00104078000080fb0000805000cf00de0035
:101fec00008040000080d10000407800004041009b
:101ffc0010479800043d84009e4190001e417800db
:10200c001082200090407800008220001040780060
:10201c008402780044c0b300c8080700a1892000de
:10202c00008a20002dfd0700a1892000008a2000d5
:10203c003bfd07000080fa00000006000400fa00d7
:10204c00dc0b07000040eb00104798000040eb0051
:10205c00004f7800540037001e81fb00d0cc2c00c0
:10206c000010b8004208de006500b90000007800de
:10207c0000005100004078000004e00049003a00e4
:10208c001e81fb00908828000010b8004308de0079
:10209c006f00b9000000780000005100004078008b
:1020ac000004e00003003a0020c0b3001047980081
:1020bc000200370010c0b3001047980000822000c7
:1020cc00904178001e80fb0000004000218220001f
:1020dc00614078008080fb00008220001040780076
:1020ec000080fb00008050006900b90000017800fe
:1020fc00706626000090b900c288de004f90de00aa
:10210c00008050000040780000c04100204798003b
:10211c0010822000904178001e80fb0000004000df
:10212c000000e80021822000614078008080fb00e4
:10213c0010822000104078000080fb0000805000ce
:10214c006900b90000017800706626000090b900a3
:10215c00c288de004f90de00008050000040780006
:10216c0000c0410030479800243d84001e80fb00d5
:10217c00000040000000e80021822000e1417800ce
:10218c001e80fb000000400021822000614178008d
:10219c00be4090002e409000840278001e429000b9
:1021ac00660807001e4fe800b0c3b3009e407800dd
:1021bc0080cf5000a8ff3600808b200011c0b300e8
:1021cc0001487800908b200011c0b30001487800c2
:1021dc00f4fd0700a08b2000104078000004e00004
:1021ec00020032008efd07000100370096fd07004b
:1021fc00a1892000008a2000b8fc0700a1892000da
:10220c00008a2000c6fc07000080fa0000000600cf
:10221c000a00fa008e007800a089200046fd070015
:10222c00814584000e00780081027800000278005d
:10223c0023c0b30022c0b30051c2b30010c0b3001e
:10224c007f090700b04580000000e00008003a005c
:10225c00808b2000104078000004e0000400320065
:10226c008dfd0700808b20008040eb00014878003a
:10227c00908b2000104078000004e0000400320035
:10228c00b8fd0700908b20008040eb0001487800df
:10229c000080fa00000006000800fa00500220003e
:1022ac00000f78005003200010079800e0892000f0
:1022bc00104078000081fb00d0cc2c000010b8003e
:1022cc004308de006a00b9000000780000005100ed
:1022dc00004078000004e0000f003a0030042000b9
:1022ec0020079800f005200030079800043d84007a
:1022fc001e009000804178003e0090000041780064
:10230c001e007800804078002e009000004078007d
:10231c00c50807000e003700e004200020079800d5
:10232c00f005200030079800043d84001e0090004a
:10233c00804178003e009000004178001e0078003b
:10234c00804078002e00900000407800b60807000e
:10235c00308a200090407800d0892000104078000e
:10236c0080cf500029003200d08920001040780026
:10237c000081fb00d0cc2c000010b8004308de001c
:10238c006a00b9000000780000005100004078009d
:10239c000004e0000f003a00200220002007980003
:1023ac008003200030079800043d84001e0090003c
:1023bc00804178003e009000004178001e007800bb
:1023cc00804078002e0090000040780096080700ae
:1023dc000e003700d0022000200798008003200058
:1023ec0030079800043d84001e0090008041780066
:1023fc003e009000004178001e007800804078007c
:10240c002e0090000040780087080700208a2000ea
:10241c0090407800c08920001040780080cf500098
:10242c0029003200c0892000104078000081fb0098
:10243c00d0cc2c000010b8004308de006a00b900b4
:10244c000000780000005100004078000004e0001b
:10245c000f003a00100020002007980070012000a7
:10246c0030079800043d84001e00900080417800e5
:10247c003e009000004178001e00780080407800fb
:10248c002e00900000407800670807000e0037000f
:10249c00c000200020079800700120003007980031
:1024ac00043d84001e009000804178003e009000a6
:1024bc00004178001e007800804078002e009000cb
:1024cc000040780058080700a1892000008a2000ed
:1024dc0002fc0700a1892000008a200010fc0700e4
:1024ec000080fa00000006000000fa00b10a0700a4
:1024fc0047ff0700b04580000000e00003003a00f1
:10250c00808b200011c0b30001487800908b200014
:10251c0011c0b30001487800a08b20001040780057
:10252c000004e00002003200bdfc0700010037008f
:10253c00c5fc0700a1892000008a2000e7fb0700ea
:10254c00a1892000008a2000f5fb07000080fa001a
:10255c00000006000000fa00960a0700003d840007
:10256c00b10a07000080fa00000006000000fa0023
:10257c00b40a0700013d8400810f500003003a00ab
:10258c0080458400a80a070002003700003d840043
:10259c00a50a07000080fa00000006000800fa00f7
:1025ac0080052000000f7800f0052000100798002f
:1025bc00e0892000104078000081fb00d0cc2c007a
:1025cc000010b8004308de006a00b9000000780073
:1025dc0000005100004078000004e0000f003a00b9
:1025ec004005200020079800f005200030079800d7
:1025fc00043d84001e009000804178003e00900055
:10260c00004178001e007800804078002e00900079
:10261c0000407800040807000e003700a0052000d9
:10262c0020079800f005200030079800043d840036
:10263c001e009000804178003e0090000041780020
:10264c001e007800804078002e009000004078003a
:10265c00f5070700308a200090407800d0892000d0
:10266c001040780080cf500029003200d089200023
:10267c00104078000081fb00d0cc2c000010b8007a
:10268c004308de006a00b900000078000000510029
:10269c00004078000004e0000f003a002004200005
:1026ac0020079800e004200030079800043d8400c7
:1026bc001e009000804178003e00900000417800a0
:1026cc001e007800804078002e00900000407800ba
:1026dc00d50707000e003700800420002007980063
:1026ec00e004200030079800043d84001e00900098
:1026fc00804178003e009000004178001e00780078
:10270c00804078002e00900000407800c60707003b
:10271c00208a200090407800c0892000104078006a
:10272c0080cf500029003200c08920001040780072
:10273c000081fb00d0cc2c000010b8004308de0058
:10274c006a00b900000078000000510000407800d9
:10275c000004e0000f003a0000032000200798005e
:10276c00c003200030079800043d84001e00900038
:10277c00804178003e009000004178001e007800f7
:10278c00804078002e00900000407800a6070700db
:10279c000e0037006003200020079800c0032000c3
:1027ac0030079800043d84001e00900080417800a2
:1027bc003e009000004178001e00780080407800b8
:1027cc002e0090000040780097070700a189200098
:1027dc00008a200041fb0700a1892000008a20000c
:1027ec004ffb0700e08b200090407800d08b20003e
:1027fc001040780080cf500017003200033d840059
:10280c00e08b2000104078006b00b90000007800cd
:10281c00004078007a414000e08b200010407800a6
:10282c006b00b90000007800004078007240400056
:10283c00030278008241780092c0b3008040780097
:10284c0030c0b30078070700d08b20009040780090
:10285c00e08b2000014878000080fa0000000600a0
:10286c000a00fa008e007800a0892000b2fb070055
:10287c00814584000e007800810278000002780007
:10288c0013c0b30012c0b30081c5b30000c3b300c2
:10289c00eb07070083458400c28b2800d08b2000f7
:1028ac00104078006b00b900000078000040780000
:1028bc0072404000830278000202780013c0b3001b
:1028cc0012c0b3008040780030c0b300dc070700b2
:1028dc00b04580000000e00008003a00808b20002a
:1028ec00104078000004e00004003200eafb07000e
:1028fc00808b20008040eb00014878000080fa00bb
:10290c00000006000000fa00aa090700d08b200086
:10291c008040eb0001487800f08b200051c0b300e0
:10292c000148780081458400e08b28008102780002
:10293c000002780013c0b30012c0b30021c1b30071
:10294c00c0c0b300be07070081458400b08c2800ce
:10295c00810278000002780013c0b30012c0b300eb
:10296c00d1c1b300c0c0b300b507070081458400d6
:10297c00408d2800810278000002780013c0b3005b
:10298c0012c0b30081c2b300c0c0b300ac070700d3
:10299c0081458400d08d28008102780000027800e7
:1029ac0013c0b30012c0b30031c3b300c0c0b30036
:1029bc00a307070081458400508e2800810278000f
:1029cc000002780013c0b30012c0b300e1c3b3001f
:1029dc00c0c0b3009a070700a1ff0700b0458000f4
:1029ec000000e00003003a00808b200011c0b3000f
:1029fc0001487800a08b2000104078000004e00013
:102a0c000200320086fb0700010037008efb070036
:102a1c000080fa00000006000000fa0065090700bb
:102a2c00d08b20008040eb0001487800f08b200018
:102a3c0021c0b3000148780081458400b08e280085
:102a4c00810278000002780013c0b30012c0b300fa
:102a5c0021c1b300c0c0b3007907070081458400d1
:102a6c00208f2800810278000002780013c0b30088
:102a7c0012c0b300d1c1b300c0c0b30070070700cf
:102a8c0077ff0700b04580000000e00003003a002b
:102a9c00808b200011c0b30001487800a08b20006f
:102aac00104078000004e000020032005cfb0700dc
:102abc000100370064fb07000080fa0000000600ec
:102acc001400fa003b090700d08b20008040eb007b
:102adc0001487800f08b200051c0b3000148780009
:102aec00608a200039fa0700a1892000608a200042
:102afc007afa0700808a2000104078000080fb00e2
:102b0c008e007800eaf9070063004700820020007d
:102b1c00a18f2800f3f707001e407800204f980083
:102b2c001e409000304f98000040eb00404f980042
:102b3c008145840063004700810278000002780020
:102b4c0013c0b30012c0b30021c1b300c0c0b300a6
:102b5c003b070700908a2000104078000080fb00a3
:102b6c008e007800d2f9070063004700a200200015
:102b7c0021902800dbf707001e407800404f98009a
:102b8c001e409000504f98000040eb00604f9800a2
:102b9c0081458400630047008102780000027800c0
:102bac0013c0b30012c0b300d1c1b300c0c0b30096
:102bbc0023070700a08a2000104078000080fb004b
:102bcc008e007800baf9070063004700a2002000cd
:102bdc00c1902800c3f707001e407800404f9800b2
:102bec001e409000504f98000040eb00604f980042
:102bfc008145840063004700810278000002780060
:102c0c0013c0b30012c0b30081c2b300c0c0b30084
:102c1c000b07070081458400609128008102780031
:102c2c000002780013c0b30012c0b30031c3b3006c
:102c3c00c0c0b3000207070081458400e091280062
:102c4c00810278000002780013c0b30012c0b300f8
:102c5c00e1c3b300c0c0b300f906070000ff0700d2
:102c6c00b04580000000e00003003a00808b20009b
:102c7c0011c0b30001487800a08b200010407800f0
:102c8c000004e00002003200e5fa07000100370002
:102c9c00edfa07000080fa00000006000400fa00bc
:102cac00d08b2000104078000080fb00e20f500019
:102cbc0050003200e20f500005003c000000e00024
:102ccc0008003200e10f5000280032006f0037007e
:102cdc00e30f500060003200e40f50006600320039
:102cec006a003700808a2000104078000080fb00ca
:102cfc008000e8008001200000017800110009002c
:102d0c008200d8008000fd0080407800808a20007e
:102d1c0001487800003d840000027800a3c1b30094
:102d2c0002c4b30021c1b30060c3b3003e06070068
:102d3c00808a2000104078000080fb008e00780014
:102d4c005bf90700814584000e0078008102780051
:102d5c000002780013c0b30012c0b30021c1b3004d
:102d6c0060c3b300b606070048003700908a200005
:102d7c00104078000080fb008000e800c0032000b9
:102d8c0000017800110009008200d8008000fd00cd
:102d9c0080407800908a200001487800003d840033
:102dac000002780053c2b300e2c4b300d1c1b30037
:102dbc0020c4b3001c060700908a20001040780045
:102dcc000080fb008e00780039f9070081458400f3
:102ddc000e007800810278000002780013c0b30066
:102dec0012c0b300d1c1b30020c4b30094060700d5
:102dfc0026003700a08a20008040eb0001487800b4
:102e0c00003d84000002780003c3b300e2c4b300a9
:102e1c0081c2b30020c4b30003060700a08a2000bf
:102e2c00104078000080fb008e00780020f907002d
:102e3c00814584000e007800810278000002780041
:102e4c0013c0b30012c0b30081c2b30020c4b300de
:102e5c007b0607000d003700618a2000a089200046
:102e6c009ef90700008c20008040eb0001487800a0
:102e7c00a4fe070005003700008c20008040eb000a
:102e8c00014878009ffe0700000000000080fa0057
:102e9c00000006001400fa0046080700d08b200042
:102eac008040eb0001487800f08b200041c0b3005b
:102ebc0001487800608a200044f90700a1892000ad
:102ecc00608a200096f90700708a20001040780074
:102edc000080fb008e007800f5f8070063004700c7
:102eec006200200031922800fef607001e40780098
:102efc00004f98001e409000104f98000040eb00cf
:102f0c00204f9800814584006300470081027800bf
:102f1c000002780013c0b30012c0b30021c1b3008b
:102f2c00c0c0b30046060700608a2000104078003d
:102f3c000080fb008e007800ddf80700630047007e
:102f4c008200200091922800e6f607001e407800cf
:102f5c00204f98001e409000304f98000040eb002e
:102f6c00404f98008145840063004700810278003f
:102f7c000002780013c0b30012c0b300d1c1b3007b
:102f8c00c0c0b3002e060700814584006091280064
:102f9c00810278000002780013c0b30012c0b300a5
:102fac0081c2b300c0c0b300250607008145840070
:102fbc00e0912800810278000002780013c0b30071
:102fcc0012c0b30031c3b300c0c0b3001c0607006d
:102fdc0023fe0700b04580000000e00003003a002b
:102fec00808b200011c0b30001487800a08b20001a
:102ffc00104078000004e0000200320008fa0700dc
:10300c000100370010fa07000080fa0000000600eb
:10301c000400fa00d08b2000104078000080fb00e8
:10302c00e10f500035003200e10f500003003c006e
:10303c000000e000060032008c003700e20f500068
:10304c007d003200e30f5000830032008700370010
:10305c00708a2000104078008040e800708a2000c0
:10306c0001487800708a2000104078008080fb00b6
:10307c00608a2000104078000080fb000000e9000e
:10308c00000140008080200000004100100078000a
:10309c00808f500003003600708a200011c0b300ee
:1030ac0001487800003d840000027800a3c1b30001
:1030bc0062c3b30021c1b300a0c2b3005a0507001c
:1030cc00708a2000104078000080fb008e00780091
:1030dc0077f80700814584000e00780081027800a3
:1030ec000002780013c0b30012c0b30021c1b300ba
:1030fc00a0c2b300d20507005c003700608a200034
:10310c00104078008040e800608a20000148780078
:10311c00608a200010407800ec4f5000030036000d
:10312c00608a200011c0b30001487800708a20002a
:10313c00104078008080fb00608a200010407800ee
:10314c000080fb000000e9000001400080802000ae
:10315c000000410010007800808f500020003600e5
:10316c00608a2000104078000080fb000000e9001d
:10317c00800040008080200000804000100078001b
:10318c0080407800708a200001487800003d84005f
:10319c0000027800a3c1b30062c3b30021c1b30025
:1031ac00a0c2b30020050700708a200010407800f0
:1031bc000080fb008e0078003df8070081458400fc
:1031cc000e007800810278000002780013c0b30072
:1031dc0012c0b30021c1b300a0c2b3009805070010
:1031ec00003d84000002780053c2b30032c4b30027
:1031fc00d1c1b30070c3b3000b050700608a200077
:10320c00104078000080fb008e00780028f8070042
:10321c00814584000e00780081027800000278005d
:10322c0013c0b30012c0b300d1c1b30070c3b3005c
:10323c00830507000d003700618a2000a08920005b
:10324c00b7f80700008c20008040eb0001487800a4
:10325c00acfd070005003700008c20008040eb001f
:10326c0001487800a7fd0700000000000080fa006c
:10327c00000006001400fa004e070700d08b200057
:10328c008040eb0001487800f08b200051c0b30067
:10329c0001487800608a20004cf80700a1892000c2
:1032ac00608a20008df80700e08a2000104078002a
:1032bc000080fb008e007800fdf7070063004700dc
:1032cc0082002000a18f280006f607001e4078001f
:1032dc00204f98001e409000304f98000040eb00ab
:1032ec00404f9800814584006300470081027800bc
:1032fc000002780013c0b30012c0b30021c1b300a8
:10330c00c0c0b3004e050700f08a200010407800c2
:10331c000080fb008e007800e5f707006300470093
:10332c00a200200021902800eef507001e40780036
:10333c00404f98001e409000504f98000040eb000a
:10334c00604f98008145840063004700810278003b
:10335c000002780013c0b30012c0b300d1c1b30097
:10336c00c0c0b30036050700008b20001040780069
:10337c000080fb008e007800cdf70700630047004b
:10338c00a2002000c1902800d6f507001e4078004e
:10339c00404f98001e409000504f98000040eb00aa
:1033ac00604f9800814584006300470081027800db
:1033bc000002780013c0b30012c0b30081c2b30086
:1033cc00c0c0b3001e05070081458400109328007f
:1033dc00810278000002780013c0b30012c0b30061
:1033ec0031c3b300c0c0b30015050700814584008c
:1033fc0080932800810278000002780013c0b3008b
:10340c0012c0b300e1c3b300c0c0b3000c05070089
:10341c0013fd0700b04580000000e00003003a00f7
:10342c00808b200011c0b30001487800a08b2000d5
:10343c00104078000004e00002003200f8f80700a9
:10344c000100370000f907000080fa0000000600b8
:10345c000400fa00d08b2000104078000080fb00a4
:10346c00e20f500050003200e20f500005003c000b
:10347c000000e00008003200e10f5000280032008c
:10348c0072003700e30f500060003200e40f500070
:10349c00660032006d003700e08a20001040780092
:1034ac000080fb008000e800800120000001780013
:1034bc00110009008200d8008000fd0080407800d7
:1034cc00e08a200001487800003d8400000278006a
:1034dc00a3c1b30002c4b30021c1b30060c3b300e5
:1034ec0051040700e08a2000104078000080fb00a7
:1034fc008e0078006ef70700814584000e0078007e
:10350c00810278000002780013c0b30012c0b3002f
:10351c0021c1b30060c3b300c90407004b003700de
:10352c00f08a2000104078000080fb008000e8004a
:10353c00c003200000017800110009008200d800af
:10354c008000fd0080407800f08a2000014878005f
:10355c00003d84000002780053c2b300e2c4b30003
:10356c00d1c1b30020c4b3002f040700f08a20009f
:10357c00104078000080fb008e0078004cf70700ac
:10358c00814584000e0078008102780000027800ea
:10359c0013c0b30012c0b300d1c1b30020c4b30038
:1035ac00a704070029003700008b20008040eb00a7
:1035bc0001487800003d84000002780003c3b3008a
:1035cc00e2c4b30081c2b30020c4b30016040700e8
:1035dc00008b2000104078000080fb008e007800eb
:1035ec0033f70700814584000e00780081027800d3
:1035fc000002780013c0b30012c0b30081c2b30044
:10360c0020c4b3008e04070010003700a08b2000ec
:10361c0011c0b30001487800008c20008040eb0002
:10362c0001487800b7fc070008003700a08b200089
:10363c008040eb0001487800008c20008040eb00bb
:10364c0001487800affc070000000000a08b2000b0
:10365c00104078000004e0000200320070f807000f
:10366c000100370078f807000080fa00000006001f
:10367c000000fa004f060700d08b20008040eb00c2
:10368c0001487800f08b200021c0b300014878007d
:10369c0081458400009428008102780000027800a3
:1036ac0013c0b30012c0b30021c1b300c0c0b3003b
:1036bc0063040700814584009094280081027800ff
:1036cc000002780013c0b30012c0b300d1c1b30024
:1036dc00c0c0b3005a04070061fc0700b04580006d
:1036ec000000e00003003a00808b200011c0b30002
:1036fc0001487800a08b2000104078000004e00006
:10370c000200320046f80700010037004ef80700af
:10371c000080fa00000006000000fa00008c200077
:10372c00104078000004e0002b003a00d08b200001
:10373c00104078000080fb00e20f500016003200b1
:10374c00e20f500005003c000000e00008003200d1
:10375c00e10f50000b00320071003700e30f5000f6
:10376c0012003200e40f5000160032006c003700db
:10377c00a9fc0700008c200011c0b30001487800a0
:10378c0067003700cefc0700008c200021c0b3007e
:10379c000148780062003700befd0700008c200055
:1037ac0031c0b300014878005d003700b0ff07005e
:1037bc00008c200041c0b3000148780000000000dc
:1037cc0057003700abfe0700008c200051c0b3003f
:1037dc000148780052003700008c2000104078001f
:1037ec00e14f500019003a00d08b200010407800b7
:1037fc000080fb000000e00003003200e10f5000ed
:10380c00080032000d0037000cfa07000000eb0036
:10381c00904588000000eb00a045880007fa0700df
:10382c000600370010002000904588001000200092
:10383c00a04588002cfb070000000000008c200035
:10384c008040eb000148780035003700008c2000e8
:10385c0010407800e24f500002003a000ffd0700c4
:10386c002f003700008c200010407800e34f5000f0
:10387c0002003a00e6fd070029003700008c20000a
:10388c0010407800e44f500020003a00d08b20000c
:10389c00104078000080fb000000e00003003200c4
:1038ac00e10f5000070032000c0037000000eb0065
:1038bc00b0458800808b200011c0b300014878000f
:1038cc000600370010002000b0458800808b2000d7
:1038dc008040eb000148780000000000008c2000c4
:1038ec008040eb0001487800a0458000904588009e
:1038fc00a04580000000e00002003a00cff907006c
:10390c0007003700f8fa070005003700008c20008c
:10391c0010407800e54f500001003a00ccfe070043
:10392c000080fa00000006000000fa0095e1a800f3
:10393c00a10c80000003200001007000a00c880086
:10394c00300d2400900c88008860a9009860a800b5
:10395c000080fa00000006000000fa00003d840020
:10396c00b1050700930507000080fa00000006006f
:10397c000000fa006326a9006306a9000080fa0083
:10398c00000006000200fa009d060700f8ff070081
:10399c00208b200068f60700a08920008bf607001a
:1039ac00c08a20009cf60700ebff0700a3f9070074
:1039bc00a1892000008a2000c8f60700daff070062
:1039cc00010037000000000021338000008020003f
:1039dc00008060000000e00021003a006706a800ab
:1039ec0090458000e20f500014003a00e08b20005c
:1039fc0090407800d08b20001040780080cf500091
:103a0c000e003a00d08b2000104078000080fb00a4
:103a1c008000e800f08b2000104078000080fb0054
:103a2c0000017800110009008200d8008000fd0020
:103a3c0080407800d08b2000014878000000eb001b
:103a4c00000f7800010037001e0fe8003006200040
:103a5c009e007800808f5000fbff34006706a900a1
:103a6c002133800000002100008060000000e00095
:103a7c00d4ff3a006726a800108c200011c0b300b8
:103a8c00014878000000eb00000f780001003700bf
:103a9c001e0fe800300620009e007800808f50003a
:103aac00fbff34006726a900c7ff37000400fa00ab
:103abc0020479800314798002e4090008080fb00f2
:103acc003e4090000000fb00008f4000205b28006f
:103adc00104078000080fb009e0f500003003d005a
:103aec00205b280010407800080037001e0078008a
:103afc000000e00002003d000040eb000300370036
:103b0c00be4090002e40900000c040000080fa00a3
:103b1c00000006000200fa00004f780011479800e0
:103b2c00205b2800104078009e40780080cf500029
:103b3c0005003e00305b2800104078009e4090004d
:103b4c0080cf5000020036000000eb000700370069
:103b5c00f1c5b3001e4078009c040700f1c5b3000a
:103b6c001e40900084040700c00407000080fa0087
:103b7c00000006000400fa00004f7800114798007e
:103b8c0012079800205b2800104078009e407800b7
:103b9c0080cf50000e003e00305b280010407800b3
:103bac009e40900080cf50000b003e00f1c5b3004a
:103bbc001e40780085040700f1c5b3001e4090003c
:103bcc006d0407001e009000c204070003003700bc
:103bdc000000000001003700000000000080fa0027
:103bec00000006000e00fa00004f9800114f9800dc
:103bfc00224f9800630798000e4890008080fb00cd
:103c0c002e4890000080fb0080805000205b280034
:103c1c00104078000080fb00808f500070003c004a
:103c2c001e4890008080fb002e4890000080fb0016
:103c3c0080805000305b2800104078000080fb0032
:103c4c00808f500068003c002e4890000004e0007b
:103c5c0001003a0010c0b300204f98002e4890008d
:103c6c00804078000e48900090ff07002047980095
:103c7c002e4890000040ea00804078000e489000ea
:103c8c008aff0700304798002e489000804078004b
:103c9c001e48900085ff0700404798002e48900072
:103cac000040ea00804078001e4890007fff07002b
:103cbc0050479800be409000014f780043003700f9
:103ccc000e4890009e4f5000030039000e489000a3
:103cdc001e405000030037009e4078000e489000b4
:103cec0000c0500060479800de40900011479800db
:103cfc00310037009e4890001e40900080cf50004d
:103d0c00040039009e4890001e40900000c05000f6
:103d1c00030037009e4090001e48900000c05000e9
:103d2c00704798007e4090008080fb006e409000b1
:103d3c000080fb00808040002e4890000080fb003b
:103d4c00808f5000150034007e4090008080fb0076
:103d5c007e4090000080fb000088b90000017800d4
:103d6c006e4090008080fb006e4090000080fb0055
:103d7c000088b90000007800000141002e48900036
:103d8c008080fb002e4890000080fb000088b9006a
:103d9c0000007800800f510004003c006e01900080
:103dac009e4090001e40780072ff07001e4090005d
:103dbc000040e800104798009e4090004e40900054
:103dcc0080cf5000cbff39001e4fe8002e409000f2
:103ddc009e40780080cf5000b9ff390003003700b7
:103dec000000000001003700000000000080fa0015
:103dfc00000006000c00fa0060479800714798001c
:103e0c00024f9800530798000040eb0010479800b1
:103e1c000040eb00204798000040eb003047980032
:103e2c000000eb00200798000e4890000004e00012
:103e3c0001003a0010c0b300004f98000e489000eb
:103e4c000040e800004f78000040eb00104798005d
:103e5c000040eb00204798000000eb002007980082
:103e6c00670037001e4090000000fb00000040007f
:103e7c000000e800ae009000008040002007980091
:103e8c001e4090000040e800104798002e00900063
:103e9c000000e0005a0035004c003700ae409000a6
:103eac003147980043003700ae4090007e409000b0
:103ebc0080c040003e4190006e40900000404100a8
:103ecc005e0190002bff07002e409000fe409000fa
:103edc0080c050003e4190006e4090000040410078
:103eec005e01900023ff0700ae4090007e409000e2
:103efc0080c040003e4090006e4190000040510058
:103f0c005e0190001bff07002e409000fe409000c9
:103f1c0080c050003e4090006e4190000040510027
:103f2c005e01900013ff0700be4090007e409000a1
:103f3c0080c040002e4190006e4090000040410037
:103f4c005e0190000bff07003e409000fe40900089
:103f5c0080c050002e4190006e4090000040410007
:103f6c005e01900003ff0700be4090007e40900071
:103f7c0080c040002e4090006e41900000405100e7
:103f8c005e019000fbfe07003e409000fe4090005a
:103f9c0080c050002e4090006e41900000405100b7
:103fac005e019000f3fe07003e4090000040e800e8
:103fbc00304798003e4090009e4f5000baff3500ad
:103fcc002e4090000040e80020479800ae40900042
:103fdc001e40900080cf5000b0ff35009e00fb00cb
:103fec00e0ff2f000088b900000078000000e80016
:103ffc00ae00900000804000200798001e4fe900a2
:10400c001e4090009e40780080cf500095ff3d00f0
:10401c000080fa00000006000a00fa0040479800f1
:10402c0051479800624798007347980044079800de
:10403c007e4090000080fb000000d1000040780022
:10404c00ee40900000c040006047980064003700cc
:10405c00ee409000014f78000040eb0010479800b4
:10406c000000eb0010079800560037009e409000af
:10407c005e40900080c040001e4178004e40900091
:10408c00004041004e019000bafe07001e40900017
:10409c00de40900080c050001e4178004e409000e1
:1040ac00004041004e019000b2fe07009e4090007f
:1040bc005e40900080c040001e4078004e41900051
:1040cc00004051004e019000aafe07001e409000d7
:1040dc00de40900080c050001e4078004e419000a1
:1040ec00004051004e019000a2fe07009e40780057
:1040fc005e40900080c040001e4190004e409000f9
:10410c00004041004e0190009afe07001e407800ce
:10411c00de40900080c050001e4190004e40900048
:10412c00004041004e01900092fe07009e40780036
:10413c005e40900080c040001e4090004e419000b8
:10414c00004051004e0190008afe07001e4078008e
:10415c00de40900080c050001e4090004e41900008
:10416c00004051004e01900082fe07001e4090005e
:10417c000000fb00000040000000e8009e009000e2
:10418c0000804000100798001e4090000040e8009e
:10419c00104798001e0090000000e0000900350058
:1041ac009e00fb00e0ff2f000088b90000007800a3
:1041bc000000e8009e00900000804000100798006e
:1041cc001e4fe9001e4090009e40780080cf5000aa
:1041dc00a6ff3d006e4090000040e900604798004b
:1041ec007e4090000080fb000000ea004f00de00e3
:1041fc0000407800fe4090008140e9007147980033
:10420c000004e00092ff3a000080fa000000060073
:10421c000600fa0010079800210798001e00900075
:10422c00104f78002e009000904078001e009000f7
:10423c00014878002e0090001e4878000080fa009b
:10424c00000006000800fa00000f78001107980023
:10425c0022079800330798001e00780090407800e1
:10426c002e0090001040780080cf500006003600e1
:10427c00ae0090001e007800e5ff0700be00900025
:10428c001e009000e2ff07000080fa00000006000c
:10429c000800fa00000f7800110798002207980018
:1042ac00330798001e009000904078003e0090006c
:1042bc001040780080cf500006003600ae00900011
:1042cc001e007800d2ff0700be0090001e00900078
:1042dc00cfff07000080fa00000006000600fa007d
:1042ec00004f780011479800224798002307980048
:1042fc002e409000e14f500005003e002e01900032
:10430c009e4090001e4078001afe070009003700fe
:10431c002e4090000080fb000000d100004078008f
:10432c00ae019000004178009e4090001e40780045
:10433c00b0fe07000080fa00000006001000fa0032
:10434c00889fbe00004f9800114f9800224f980094
:10435c00334f9800444f9800750798004e489000d2
:10436c000004e00001003a0010c0b300404f980078
:10437c00ae4890000e48900000c0500020479800b6
:10438c00be4890001e48900000c050003047980076
:10439c003e4090000004e00017003a002e409000d0
:1043ac000004e0009a003200eb0147006a0147006c
:1043bc00e900470068004700a2ff07008e48900004
:1043cc00014f7800070037001e489000fe01900056
:1043dc004e499000804078001e407800bfff0700d7
:1043ec001e4fe8002e4890009e40780080cf500071
:1043fc00f5ff3600890037002e4090000004e000e5
:10440c0018003a003e4090000004e00082003200a8
:10441c00eb0147006a014700e900470068004700cc
:10442c009bff07009e48900011479800080037003a
:10443c000e489000fe0190004e4990009e40900066
:10444c00a6ff07001e4090000040e80010479800af
:10445c003e4890009e40900080cf5000f4ff360004
:10446c006e0037002e4090000000fb0080007800aa
:10447c0001f0a7008100ea003e4090000000fb0024
:10448c0000f0a7000000ea00808f50002f003400dd
:10449c003e4090000000fb00cf80de00c8f007001b
:1044ac000004be002e4090000000fb00cf80de0018
:1044bc00c3f007000001be000800be005df007005d
:1044cc002007980031079800eb0147006a0147006c
:1044dc00e9004700680047005aff07008e4890002b
:1044ec00014f7800140037009e80fb000e489000ae
:1044fc000080fb0000805000cf80de00b0f0070091
:10450c002e019000be01900003f107008bf0070014
:10451c0000007800804078001e48900000c04000e9
:10452c00fe0190004e499000804078001e407800bb
:10453c006aff07001e4fe8002e4890009e4078004e
:10454c0080cf5000e8ff3900340037002e40900037
:10455c000000fb00cf80de0099f007000004be00d5
:10456c003e4090000000fb00cf80de0094f007007e
:10457c000001be000800be002ef0070020079800c6
:10458c0031079800eb0147006a014700e90047003a
:10459c00680047003eff07009e48900011479800b6
:1045ac00160037001e4090008080fb001e489000d3
:1045bc000080fb0000805000cf80de0080f0070000
:1045cc002e019000be019000d3f007005bf00700b5
:1045dc0000007800804078000e48900000c0400039
:1045ec00fe0190004e4990009e4090003bff07005a
:1045fc001e4090000040e800104798003e48900094
:10460c009e40900080cf5000e6ff39000300370039
:10461c000000000001003700000000004f04be0045
:10462c000080fa00000006000800fa0020479800fd
:10463c003147980042479800534798003407980038
:10464c00ce4090002e409000e0010700de4090002c
:10465c003e409000c8010700ae409000014f78002a
:10466c0010003700be40900011479800050037003d
:10467c003e009000170207001e4090000040e8002a
:10468c00104798001e4090008080fb005e40900018
:10469c000080fb000000e800808f5000f4ff350024
:1046ac001e4fe8009e80fb004e4090000080fb00f7
:1046bc000000e800808f5000eaff35000080fa000f
:1046cc00000006001000fa00004f9800114f9800ef
:1046dc00224f9800334f9800444f9800750798006c
:1046ec004e4890000080fb0001fe2f0080804000af
:1046fc00405b2800104078000080fb000088b90067
:10470c000000780080007800605b2800008f40007b
:10471c000000eb00100798003c0037001e007800ea
:10472c0090407800614798001e0fe800505b28000d
:10473c00104078008080fb003e4890000080fb0019
:10474c000088b90000007800200798002700370087
:10475c006e4090000080fb0061006000004078001b
:10476c000004e000180032002e0090008040780019
:10477c001e48900080c040003e48900000c04000a1
:10478c008041e9001e009000804078000e489000a7
:10479c0080c040002e48900000c040000041e9005d
:1047ac002e009000804078001e48900080c0400091
:1047bc001e009000004278000e489000004042001d
:1047cc007e02900098ff07006e4090000080fb0076
:1047dc000000d100604798003e4890000080fb002c
:1047ec00ae00900000805000200798002e00900032
:1047fc000000e000d6ff3a002e4890000080fb003d
:10480c009e0090000080400010079800405b28003c
:10481c00104078008080fb002e4890000080fb0048
:10482c000088b90000007800800078001e0090001d
:10483c00808f5000b9ff3e000080fa000000060097
:10484c000800fa00004f78001147980022479800a2
:10485c003347980024079800350798001500370057
:10486c002e00900010407800ae0090008100e8000f
:10487c0021079800be02900000427800be419000d3
:10488c002e4190009e4090001e4078008dff070046
:10489c00405b280010407800ae4090008180fb0007
:1048ac000088b90000007800004078001e404000ed
:1048bc00004fe8002e009000104078000004e0004b
:1048cc00e7ff3a000080fa00000006001400fa002e
:1048dc00204f9800314f980062079800634f980062
:1048ec00744f9800050f98002657980000c2b3002b
:1048fc00604798006e4890000004e000020032000f
:10490c006e4890000100370010c0b300604f980053
:10491c007e4890000004e000020032007e489000c7
:10492c000100370010c0b300704f98000040eb003e
:10493c00004f7800510037000e0890001001be00a7
:10494c0012079800230798000e089000640040009e
:10495c00000f98001e407800fe4890008180fb00fc
:10496c000088b90000007800804078003e48900034
:10497c0000c04000704798000040eb0010479800c2
:10498c00390037001e019000ae019000100020008d
:10499c0001002000020278000301780080017800f9
:1049ac000100780003026200000061008000eb004f
:1049bc00c000dd00000020000001be006120b80036
:1049cc000001710081817100e00f5100e08f5900ee
:1049dc001c003a006e4090008080fb001e4090004e
:1049ec000080fb000080500000407800ee489000f2
:1049fc008180fb000088b9000000780080407800be
:104a0c002e48900000c04000004f9800fe409000df
:104a1c007e48900000c040008040e9000e499000a4
:104a2c006e489000004041000040e9006e0290008a
:104a3c008141780000417800fe4090000e489000c3
:104a4c00f9fe07001e009000ae0090008100d1001e
:104a5c000080d30010079800210798001e4090009a
:104a6c000040e800104798009e4090006e40900077
:104a7c0080cf5000c3ff39001e4fe8002e5090002d
:104a8c009e40780080cf5000abff39000080fa00c8
:104a9c00000006000200fa00000f7800c00520009c
:104aac009e007800808f500004003200d00520005a
:104abc009e007800808f500009003a00c00520004d
:104acc009e007800808f500002003a0010c0b300a6
:104adc000100370020c0b30000e8b7000100370028
:104aec000068ef000080fa00000006000200fa00e7
:104afc00004f780011479800090107000004a2003c
:104b0c000004e000020032000080eb000c003700d3
:104b1c001e40780063010700004f78001e40900093
:104b2c0060010700104798004a0107001e80fb0037
:104b3c00c800dd001e4090000080fb0001007000ea
:104b4c000080fa00000006000200fa0020c3b30047
:104b5c00004f780012c0b3008e007800000a2000cd
:104b6c006600070000c2b300004f780012c0b3000b
:104b7c008e007800100a2000600007000080fa0008
:104b8c00000006000000fa000041eb008000eb0082
:104b9c00c0052000590007008f26a9008e66a800ca
:104bac000080fa00000006000000fa000041eb0053
:104bbc008000eb00d0052000500007008f26a900d4
:104bcc008e66a8000080fa00000006000800fa00bb
:104bdc0000017800310798003e0090004800de008c
:104bec00004f78003e009000104798001e80fb009c
:104bfc004300de0000407800204798001e80fb0038
:104c0c00670060004300dd00804078001e4090008b
:104c1c000080fb004500de000040780000c0700002
:104c2c00304798001e4090007f406000404798003d
:104c3c000e80e80082007800904878008100e8003f
:104c4c000000e800904878008100e8000000e800cf
:104c5c00904878008100e8000000e800020078002d
:104c6c000080fa00000006000600fa0020479800b9
:104c7c0031479800424798002e4090007f406000da
:104c8c00204798003e409000f043b2003047980017
:104c9c004e4090007f406000404798002e409000ae
:104cac000080fb004300dd00804078003e40900017
:104cbc000080fb004300de000040780000c0700064
:104ccc00004f78003e4090000080fb004500dd0066
:104cdc00804078004e40900000c070001047980053
:104cec001e80fb00c800dd001e4090000080fb0011
:104cfc00010070000080fa00000006000600fa00b7
:104d0c00000f7800110798004247980084000700b4
:104d1c000004a2000004e00014003a008f26a90051
:104d2c008e66a9001e00780000407800dd000700a8
:104d3c004e4090000004e000070032008e66a80090
:104d4c004e4090000080fb00800078001e00900018
:104d5c00fa0007008e66a9008f26a800bd00070088
:104d6c001e0078004bff0700010037000000000018
:104d7c000080fa00000006000400fa0020479800aa
:104d8c00314798002e409000f1c5b300814f500080
:104d9c0001003600f0c5b300004f78003e40900093
:104dac00f1c5b300814f500001003600f0c5b300cf
:104dbc001047980022c0b3008e00780050072000e6
:104dcc00ceff07000080fa00000006000400fa0085
:104ddc0020479800314798002e409000f1c5b30051
:104dec00814f500001003600f0c5b30020479800f9
:104dfc003e409000f1c5b300814f500001003600d9
:104e0c00f0c5b300304798002e4090007040400031
:104e1c00004f78003e4090007040400010479800d2
:104e2c0022c0b3008e00780050012000b3ff0700b1
:104e3c000080fa00000006000200fa00004f780023
:104e4c001e4078000004e00002003200e00a20005e
:104e5c0001003700f00a20000041eb008000eb005d
:104e6c00a6ff07000080fa00000006000000fa0010
:104e7c0000c8bf00e24f5000010032004aff07009b
:104e8c0000c8bf00e24f5000020032000080eb006f
:104e9c000300370080c0eb0000c0eb0013ff0700dd
:104eac000080fa00000006000400fa00004f7800b1
:104ebc0011479800224798002e4190009e40900088
:104ecc001e40780068ff0700020007000080fa000f
:104edc00000006000200fa00000f780000c8bf00b6
:104eec00e14f50000100320026ff070000c8bf0050
:104efc00e14f500007003a001e0078008040780017
:104f0c001e0078004800de0000407800f7fe070025
:104f1c0001003700000000000080fa0000000600cd
:104f2c000000fa004f0007000080fa0000000600a5
:104f3c000000fa0063a6a90077a6a90077e6a900ed
:104f4c008a26a9008a66a9008b06a9008b26a900cf
:104f5c008f06a90067a6a8008e26a90010002000c5
:104f6c002d01070067a6a900200020003b010700c7
:104f7c0067a6a8008f06a8001000200026010700d5
:104f8c000040eb00acff0700800c20002201070062
:104f9c00f1c5b3000040eb008cff0700f1c5b30076
:104fac000040eb0074ff0700e7fe07000080fa00ea
:104fbc00000006000200fa0001c6b3000040eb003e
:104fcc0082ff070001c6b3000040eb006aff070038
:104fdc000040eb00004f78000d0037000040eb0064
:104fec00104798000500370010408000b9ff0700fb
:104ffc001e4090000040e800104798009e40900032
:10500c00f0c5b30080cf5000f7ff36001e4fe8000c
:10501c00f0c5b3009e40780080cf5000efff360003
:10502c000080fa00000006000200fa00000f780071
:10503c009e00780011408800deff07000080fa0017
:10504c00000006000000fa00104080000080fa000a
:10505c00000006000000fa00f5e3a9000080fa0049
:10506c00000006000000fa00a11f800000002800cc
:10507c00008060000000e00007003a0000122000f1
:10508c00a01f88000424ef0077e6a900f5e3a80030
:10509c0010c0b300010037000040eb000080fa00a4
:1050ac00000006000200fa00004f78001e80fb0092
:1050bc000020880000000000e01f800061006000fc
:1050cc000000e000fcff320000208000004078006f
:1050dc000080fa00000006000600fa001007980095
:1050ec00210798009e009000010f78000600370001
:1050fc001e00780010407800eaff07009e00780040
:10510c00804878001e0fe8002e00900000f0a700e9
:10511c000000ea000000ea004f00de0000407800ca
:10512c00ae0090008100e900210798000004e00027
:10513c00efff3a000080fa00000006000600fa00bb
:10514c0010079800210798009e009000010f78002e
:10515c00040037001e007800104078001e0fe80095
:10516c00d0ff07002e00900000f0a7000000ea001e
:10517c000000ea004f00de0000407800ae00900016
:10518c008100e900210798000004e000f1ff3a00db
:10519c000080fa00000006000600fa0010079800d4
:1051ac00210798009e009000010f78000500370041
:1051bc000040eb00bbff07009e00780080487800a1
:1051cc001e0fe8002e00900000f0a7000000ea007f
:1051dc000000ea004f00de0000407800ae009000b6
:1051ec008100e900210798000004e000f0ff3a007c
:1051fc000080fa00000006000200fa00004f780060
:10520c001e80fb00002088000080fa0000000600d1
:10521c000000fa0000208000004078000080fa00b6
:04522c000000060078
:020000040000fa
:1052300000080000040000008000000004080000d6
:10524000020000008000000008080000920000003a
:10525000820000001f001c00001f00001e001f0035
:10526000001e00001f001f00001e00001f001e0087
:10527000001f00002f2f2f000733070037083b00c7
:10528000093f0a00430c47000f4a11004d144f001c
:1052900017521b00541f550023562700572b570049
:1052a0002f573300563755003b543f0052434f00b1
:1052b000474d4a004a4d47004f4352003f543b0080
:1052c0005537560033572f00572b570027562300ca
:1052d000551f54001b5217004f144d00114a0f0068
:1052e000470c43000a3f09003b083700073307001b
:1052f0002f072b0008270900230a1f000c1b0f0093
:1053000017111400141117000f1b0c001f0a2300a3
:10531000092708002b0700009a0800002800000059
:10532000800000000608000002000000800000006d
:045330000000000079
:020000040000fa
:105334000000fa006626ef007a26ef008e26ef00c2
:105344000080eb00103388000080eb00b03388004d
:105354000080eb00503488007426ef008826ef00ac
:105364009c26ef007226ef008626ef009a26ef00b7
:105374006826ef007c26ef009026ef0001088000ed
:10538400f00b200000816000600420007105200003
:105394000310200080497800814978008249780010
:1053a400113f800000f82f00008060007000b300ff
:1053b400103f8800113f8000f00f2800008060003b
:1053c40000b0a000103f8800c13d800000fc2f0009
:1053d40000806000d000b300c03d88000008800059
:1053e400000178000260a000600420007105200024
:1053f40003102000804978008149780082497800b0
:105404000080fa00000006000000fa00c8ff070050
:105414002e000700c8fe07000080fa000000060006
:105424000200fa00000f78000300370000fa2000a1
:1054340001002000480007001e00780000f0a700cb
:105444000000ea000000ea004f00de00004078009f
:105454001e0fe9000004e000f4ff3a000080fa00a7
:10546400000006000200fa00000f78000500370073
:1054740000082000010020003700070001fe2f0073
:105484001e8f40001e007800ff0f5000f8ff3e0002
:105494000300370040002000010020002e00070018
:1054a4001e00780000f0a7000000ea000000ea00f7
:1054b4004f00de00004078001e0fe9000004e00009
:1054c400f4ff3a000080fa00000006000000fa0031
:1054d40000002300100888000621ef006821ef0077
:1054e4006a21ef000821ef000070200050088800b6
:1054f4000c21ef000e21ef007821ef007a21ef005c
:105504007c21ef007e21ef008021ef008221ef005b
:105514008421ef008621ef000001eb0080072000ca
:10552400a1092000131020008049780081497800e7
:10553400824978000001eb0060042000710520001e
:10554400031020008049780081497800824978005e
:085554000080fa0000000600cf
:020000040000fa
:10555c00f03fb1000180b10006003500ee030900f8
:10556c0000000000403fb1000180b100fbff3d0096
:10557c001000b000203fb000020035000080090090
:08558c00000000000000060011
:020000040000fa
:020000040005f5
:045e0000ffffff00a1
:020000040000fa
:020000040005f5
:045e2000ffffff0081
:020000040000fa
:020000040005f5
:045e300078ffff00f8
:020000040000fa
:020000040005f5
:045e38004bffff001d
:020000040000fa
:020000040005f5
:045e40009fffff00c1
:020000040000fa
:020000040005f5
:045e4800ffffff0059
:020000040000fa
:020000040005f5
:045e5000deffff0072
:020000040000fa
:020000040005f5
:045e5800ffffff0049
:00000001FF
